:020000020000FC
:1000000009C01895189518955CC0189518951895FD
:1000100087C01895F89408ED0CBF002706BF0FE5C0
:100020000DBF00E00EBF08ED0CBF01E401BF7894E6
:1000300006E001B9119812985FEF4FEF6FEF7FEF75
:1000400077BD66BD20E030E0009B0DC02C3114F47C
:1000500023951AC030FD05C07FEF6FEF33601FD0CE
:1000600013C0386011C023306CF02C3144F430FDE3
:1000700003C015D0316006C01ED03E7F03C0377F5D
:1000800002E0302722273F7C01D0DECF01E030FFA5
:1000900004600ABF889532FFF9CF3B7F089555BDB4
:1000A00044BD002709BD08BD03E20EBD09E10DBD39
:1000B00001E00BBD089500270DBD0EBD0BBD1198CD
:1000C00008951FB71F9355BD44BD33FF26C031FDB2
:1000D0000DC016E880E0611B780B10E080E261172C
:1000E000780778F4612F782F30610BC016E880E034
:1000F000610F781F30F47FEF6FEF4FEF5FEF3061EC
:100100000CC0A62FB72FC62FD72F13D0A62FB72FCF
:10011000C92FDE2F0ED0492F5E2F1F911FBF1895BC
:10012000129834FF04C035FD02C0129A3062346068
:100130001895EE279927F0E1D695C79510F49A0FF8
:10014000EB1FE7959795D795C795FA95B9F7089559
:00000001FF
