:020000020000FC
:1000000009C01895189518955EC0189518951895FB
:1000100090C01895F89408ED0CBF002706BF0FE5B7
:100020000DBF00E00EBF08ED0CBF01E401BF7894E6
:1000300006E001B9119812985FEF4FEF6FEF7FEF75
:100040000FE107BD0FEF06BD20E030E0009B0DC0C3
:100050002C3114F423951AC030FD05C07FEF6FEFEB
:1000600033601FD013C0386011C022306CF02C31C7
:1000700044F430FD03C015D0316006C01ED03E7F71
:1000800003C0377F02E0302722273F7C01D0DECF3C
:1000900001E030FF04600ABF889532FFF9CF3B7F53
:1000A000089555BD44BD002709BD08BD03E20EBD3E
:1000B00009E10DBD01E00BBD089500270DBD0EBD8A
:1000C0000BBD119808951FB71F9355BD44BD33FF55
:1000D0002DC031FD0DC01FE080E0611B780B10E0EA
:1000E00080E26117780778F4612F782F30610BC0B8
:1000F0001FE080E0610F781F30F47FEF6FEF5FE16A
:100100004FEF306113C0A62FB72FC62FD72F1AD0AD
:10011000A62FB72FC92FDE2F15D0492F5E2F579549
:10012000479557954795579547955F711F911FBF05
:100130001895129834FF04C035FD02C0129A30623F
:1001400034601895EE279927F0E1D695C79510F4FD
:100150009A0FEB1FE7959795D795C795FA95B9F73D
:02016000089500
:00000001FF
